{
  "_format": "hh-sol-artifact-1",
  "contractName": "AVAXGods",
  "sourceName": "./AvaxGods.sol",
  "abi": [
    {
      "inputs": [
        {
          "internalType": "string",
          "name": "_metadataURI",
          "type": "string"
        }
      ],
      "stateMutability": "nonpayable",
      "type": "constructor"
    },
    {
      "anonymous": false,
      "inputs": [
        {
          "indexed": true,
          "internalType": "address",
          "name": "account",
          "type": "address"
        },
        {
          "indexed": true,
          "internalType": "address",
          "name": "operator",
          "type": "address"
        },
        {
          "indexed": false,
          "internalType": "bool",
          "name": "approved",
          "type": "bool"
        }
      ],
      "name": "ApprovalForAll",
      "type": "event"
    },
    {
      "anonymous": false,
      "inputs": [
        {
          "indexed": false,
          "internalType": "string",
          "name": "battleName",
          "type": "string"
        },
        {
          "indexed": true,
          "internalType": "address",
          "name": "winner",
          "type": "address"
        },
        {
          "indexed": true,
          "internalType": "address",
          "name": "loser",
          "type": "address"
        }
      ],
      "name": "BattleEnded",
      "type": "event"
    },
    {
      "anonymous": false,
      "inputs": [
        {
          "indexed": true,
          "internalType": "string",
          "name": "battleName",
          "type": "string"
        },
        {
          "indexed": true,
          "internalType": "bool",
          "name": "isFirstMove",
          "type": "bool"
        }
      ],
      "name": "BattleMove",
      "type": "event"
    },
    {
      "anonymous": false,
      "inputs": [
        {
          "indexed": false,
          "internalType": "string",
          "name": "battleName",
          "type": "string"
        },
        {
          "indexed": true,
          "internalType": "address",
          "name": "player1",
          "type": "address"
        },
        {
          "indexed": true,
          "internalType": "address",
          "name": "player2",
          "type": "address"
        }
      ],
      "name": "NewBattle",
      "type": "event"
    },
    {
      "anonymous": false,
      "inputs": [
        {
          "indexed": true,
          "internalType": "address",
          "name": "owner",
          "type": "address"
        },
        {
          "indexed": false,
          "internalType": "uint256",
          "name": "id",
          "type": "uint256"
        },
        {
          "indexed": false,
          "internalType": "uint256",
          "name": "attackStrength",
          "type": "uint256"
        },
        {
          "indexed": false,
          "internalType": "uint256",
          "name": "defenseStrength",
          "type": "uint256"
        }
      ],
      "name": "NewGameToken",
      "type": "event"
    },
    {
      "anonymous": false,
      "inputs": [
        {
          "indexed": true,
          "internalType": "address",
          "name": "owner",
          "type": "address"
        },
        {
          "indexed": false,
          "internalType": "string",
          "name": "name",
          "type": "string"
        }
      ],
      "name": "NewPlayer",
      "type": "event"
    },
    {
      "anonymous": false,
      "inputs": [
        {
          "indexed": true,
          "internalType": "address",
          "name": "previousOwner",
          "type": "address"
        },
        {
          "indexed": true,
          "internalType": "address",
          "name": "newOwner",
          "type": "address"
        }
      ],
      "name": "OwnershipTransferred",
      "type": "event"
    },
    {
      "anonymous": false,
      "inputs": [
        {
          "indexed": false,
          "internalType": "address[2]",
          "name": "damagedPlayers",
          "type": "address[2]"
        }
      ],
      "name": "RoundEnded",
      "type": "event"
    },
    {
      "anonymous": false,
      "inputs": [
        {
          "indexed": true,
          "internalType": "address",
          "name": "operator",
          "type": "address"
        },
        {
          "indexed": true,
          "internalType": "address",
          "name": "from",
          "type": "address"
        },
        {
          "indexed": true,
          "internalType": "address",
          "name": "to",
          "type": "address"
        },
        {
          "indexed": false,
          "internalType": "uint256[]",
          "name": "ids",
          "type": "uint256[]"
        },
        {
          "indexed": false,
          "internalType": "uint256[]",
          "name": "values",
          "type": "uint256[]"
        }
      ],
      "name": "TransferBatch",
      "type": "event"
    },
    {
      "anonymous": false,
      "inputs": [
        {
          "indexed": true,
          "internalType": "address",
          "name": "operator",
          "type": "address"
        },
        {
          "indexed": true,
          "internalType": "address",
          "name": "from",
          "type": "address"
        },
        {
          "indexed": true,
          "internalType": "address",
          "name": "to",
          "type": "address"
        },
        {
          "indexed": false,
          "internalType": "uint256",
          "name": "id",
          "type": "uint256"
        },
        {
          "indexed": false,
          "internalType": "uint256",
          "name": "value",
          "type": "uint256"
        }
      ],
      "name": "TransferSingle",
      "type": "event"
    },
    {
      "anonymous": false,
      "inputs": [
        {
          "indexed": false,
          "internalType": "string",
          "name": "value",
          "type": "string"
        },
        {
          "indexed": true,
          "internalType": "uint256",
          "name": "id",
          "type": "uint256"
        }
      ],
      "name": "URI",
      "type": "event"
    },
    {
      "inputs": [],
      "name": "CELESTION",
      "outputs": [
        {
          "internalType": "uint256",
          "name": "",
          "type": "uint256"
        }
      ],
      "stateMutability": "view",
      "type": "function"
    },
    {
      "inputs": [],
      "name": "FIREBIRD",
      "outputs": [
        {
          "internalType": "uint256",
          "name": "",
          "type": "uint256"
        }
      ],
      "stateMutability": "view",
      "type": "function"
    },
    {
      "inputs": [],
      "name": "GRIFFIN",
      "outputs": [
        {
          "internalType": "uint256",
          "name": "",
          "type": "uint256"
        }
      ],
      "stateMutability": "view",
      "type": "function"
    },
    {
      "inputs": [],
      "name": "HADES",
      "outputs": [
        {
          "internalType": "uint256",
          "name": "",
          "type": "uint256"
        }
      ],
      "stateMutability": "view",
      "type": "function"
    },
    {
      "inputs": [],
      "name": "KAMO",
      "outputs": [
        {
          "internalType": "uint256",
          "name": "",
          "type": "uint256"
        }
      ],
      "stateMutability": "view",
      "type": "function"
    },
    {
      "inputs": [],
      "name": "KUKULKAN",
      "outputs": [
        {
          "internalType": "uint256",
          "name": "",
          "type": "uint256"
        }
      ],
      "stateMutability": "view",
      "type": "function"
    },
    {
      "inputs": [],
      "name": "MAX_ATTACK_DEFEND_STRENGTH",
      "outputs": [
        {
          "internalType": "uint256",
          "name": "",
          "type": "uint256"
        }
      ],
      "stateMutability": "view",
      "type": "function"
    },
    {
      "inputs": [],
      "name": "YHWH",
      "outputs": [
        {
          "internalType": "uint256",
          "name": "",
          "type": "uint256"
        }
      ],
      "stateMutability": "view",
      "type": "function"
    },
    {
      "inputs": [
        {
          "internalType": "uint8",
          "name": "_choice",
          "type": "uint8"
        },
        {
          "internalType": "string",
          "name": "_battleName",
          "type": "string"
        }
      ],
      "name": "attackOrDefendChoice",
      "outputs": [],
      "stateMutability": "nonpayable",
      "type": "function"
    },
    {
      "inputs": [
        {
          "internalType": "address",
          "name": "account",
          "type": "address"
        },
        {
          "internalType": "uint256",
          "name": "id",
          "type": "uint256"
        }
      ],
      "name": "balanceOf",
      "outputs": [
        {
          "internalType": "uint256",
          "name": "",
          "type": "uint256"
        }
      ],
      "stateMutability": "view",
      "type": "function"
    },
    {
      "inputs": [
        {
          "internalType": "address[]",
          "name": "accounts",
          "type": "address[]"
        },
        {
          "internalType": "uint256[]",
          "name": "ids",
          "type": "uint256[]"
        }
      ],
      "name": "balanceOfBatch",
      "outputs": [
        {
          "internalType": "uint256[]",
          "name": "",
          "type": "uint256[]"
        }
      ],
      "stateMutability": "view",
      "type": "function"
    },
    {
      "inputs": [],
      "name": "baseURI",
      "outputs": [
        {
          "internalType": "string",
          "name": "",
          "type": "string"
        }
      ],
      "stateMutability": "view",
      "type": "function"
    },
    {
      "inputs": [
        {
          "internalType": "string",
          "name": "",
          "type": "string"
        }
      ],
      "name": "battleInfo",
      "outputs": [
        {
          "internalType": "uint256",
          "name": "",
          "type": "uint256"
        }
      ],
      "stateMutability": "view",
      "type": "function"
    },
    {
      "inputs": [
        {
          "internalType": "uint256",
          "name": "",
          "type": "uint256"
        }
      ],
      "name": "battles",
      "outputs": [
        {
          "internalType": "enum AVAXGods.BattleStatus",
          "name": "battleStatus",
          "type": "uint8"
        },
        {
          "internalType": "bytes32",
          "name": "battleHash",
          "type": "bytes32"
        },
        {
          "internalType": "string",
          "name": "name",
          "type": "string"
        },
        {
          "internalType": "address",
          "name": "winner",
          "type": "address"
        }
      ],
      "stateMutability": "view",
      "type": "function"
    },
    {
      "inputs": [
        {
          "internalType": "string",
          "name": "_name",
          "type": "string"
        }
      ],
      "name": "createBattle",
      "outputs": [
        {
          "components": [
            {
              "internalType": "enum AVAXGods.BattleStatus",
              "name": "battleStatus",
              "type": "uint8"
            },
            {
              "internalType": "bytes32",
              "name": "battleHash",
              "type": "bytes32"
            },
            {
              "internalType": "string",
              "name": "name",
              "type": "string"
            },
            {
              "internalType": "address[2]",
              "name": "players",
              "type": "address[2]"
            },
            {
              "internalType": "uint8[2]",
              "name": "moves",
              "type": "uint8[2]"
            },
            {
              "internalType": "address",
              "name": "winner",
              "type": "address"
            }
          ],
          "internalType": "struct AVAXGods.Battle",
          "name": "",
          "type": "tuple"
        }
      ],
      "stateMutability": "nonpayable",
      "type": "function"
    },
    {
      "inputs": [
        {
          "internalType": "string",
          "name": "_name",
          "type": "string"
        }
      ],
      "name": "createRandomGameToken",
      "outputs": [],
      "stateMutability": "nonpayable",
      "type": "function"
    },
    {
      "inputs": [
        {
          "internalType": "uint256",
          "name": "id",
          "type": "uint256"
        }
      ],
      "name": "exists",
      "outputs": [
        {
          "internalType": "bool",
          "name": "",
          "type": "bool"
        }
      ],
      "stateMutability": "view",
      "type": "function"
    },
    {
      "inputs": [
        {
          "internalType": "uint256",
          "name": "",
          "type": "uint256"
        }
      ],
      "name": "gameTokens",
      "outputs": [
        {
          "internalType": "string",
          "name": "name",
          "type": "string"
        },
        {
          "internalType": "uint256",
          "name": "id",
          "type": "uint256"
        },
        {
          "internalType": "uint256",
          "name": "attackStrength",
          "type": "uint256"
        },
        {
          "internalType": "uint256",
          "name": "defenseStrength",
          "type": "uint256"
        }
      ],
      "stateMutability": "view",
      "type": "function"
    },
    {
      "inputs": [],
      "name": "getAllBattles",
      "outputs": [
        {
          "components": [
            {
              "internalType": "enum AVAXGods.BattleStatus",
              "name": "battleStatus",
              "type": "uint8"
            },
            {
              "internalType": "bytes32",
              "name": "battleHash",
              "type": "bytes32"
            },
            {
              "internalType": "string",
              "name": "name",
              "type": "string"
            },
            {
              "internalType": "address[2]",
              "name": "players",
              "type": "address[2]"
            },
            {
              "internalType": "uint8[2]",
              "name": "moves",
              "type": "uint8[2]"
            },
            {
              "internalType": "address",
              "name": "winner",
              "type": "address"
            }
          ],
          "internalType": "struct AVAXGods.Battle[]",
          "name": "",
          "type": "tuple[]"
        }
      ],
      "stateMutability": "view",
      "type": "function"
    },
    {
      "inputs": [],
      "name": "getAllPlayerTokens",
      "outputs": [
        {
          "components": [
            {
              "internalType": "string",
              "name": "name",
              "type": "string"
            },
            {
              "internalType": "uint256",
              "name": "id",
              "type": "uint256"
            },
            {
              "internalType": "uint256",
              "name": "attackStrength",
              "type": "uint256"
            },
            {
              "internalType": "uint256",
              "name": "defenseStrength",
              "type": "uint256"
            }
          ],
          "internalType": "struct AVAXGods.GameToken[]",
          "name": "",
          "type": "tuple[]"
        }
      ],
      "stateMutability": "view",
      "type": "function"
    },
    {
      "inputs": [],
      "name": "getAllPlayers",
      "outputs": [
        {
          "components": [
            {
              "internalType": "address",
              "name": "playerAddress",
              "type": "address"
            },
            {
              "internalType": "string",
              "name": "playerName",
              "type": "string"
            },
            {
              "internalType": "uint256",
              "name": "playerMana",
              "type": "uint256"
            },
            {
              "internalType": "uint256",
              "name": "playerHealth",
              "type": "uint256"
            },
            {
              "internalType": "bool",
              "name": "inBattle",
              "type": "bool"
            }
          ],
          "internalType": "struct AVAXGods.Player[]",
          "name": "",
          "type": "tuple[]"
        }
      ],
      "stateMutability": "view",
      "type": "function"
    },
    {
      "inputs": [
        {
          "internalType": "string",
          "name": "_name",
          "type": "string"
        }
      ],
      "name": "getBattle",
      "outputs": [
        {
          "components": [
            {
              "internalType": "enum AVAXGods.BattleStatus",
              "name": "battleStatus",
              "type": "uint8"
            },
            {
              "internalType": "bytes32",
              "name": "battleHash",
              "type": "bytes32"
            },
            {
              "internalType": "string",
              "name": "name",
              "type": "string"
            },
            {
              "internalType": "address[2]",
              "name": "players",
              "type": "address[2]"
            },
            {
              "internalType": "uint8[2]",
              "name": "moves",
              "type": "uint8[2]"
            },
            {
              "internalType": "address",
              "name": "winner",
              "type": "address"
            }
          ],
          "internalType": "struct AVAXGods.Battle",
          "name": "",
          "type": "tuple"
        }
      ],
      "stateMutability": "view",
      "type": "function"
    },
    {
      "inputs": [
        {
          "internalType": "string",
          "name": "_battleName",
          "type": "string"
        }
      ],
      "name": "getBattleMoves",
      "outputs": [
        {
          "internalType": "uint256",
          "name": "P1Move",
          "type": "uint256"
        },
        {
          "internalType": "uint256",
          "name": "P2Move",
          "type": "uint256"
        }
      ],
      "stateMutability": "view",
      "type": "function"
    },
    {
      "inputs": [
        {
          "internalType": "address",
          "name": "addr",
          "type": "address"
        }
      ],
      "name": "getPlayer",
      "outputs": [
        {
          "components": [
            {
              "internalType": "address",
              "name": "playerAddress",
              "type": "address"
            },
            {
              "internalType": "string",
              "name": "playerName",
              "type": "string"
            },
            {
              "internalType": "uint256",
              "name": "playerMana",
              "type": "uint256"
            },
            {
              "internalType": "uint256",
              "name": "playerHealth",
              "type": "uint256"
            },
            {
              "internalType": "bool",
              "name": "inBattle",
              "type": "bool"
            }
          ],
          "internalType": "struct AVAXGods.Player",
          "name": "",
          "type": "tuple"
        }
      ],
      "stateMutability": "view",
      "type": "function"
    },
    {
      "inputs": [
        {
          "internalType": "address",
          "name": "addr",
          "type": "address"
        }
      ],
      "name": "getPlayerToken",
      "outputs": [
        {
          "components": [
            {
              "internalType": "string",
              "name": "name",
              "type": "string"
            },
            {
              "internalType": "uint256",
              "name": "id",
              "type": "uint256"
            },
            {
              "internalType": "uint256",
              "name": "attackStrength",
              "type": "uint256"
            },
            {
              "internalType": "uint256",
              "name": "defenseStrength",
              "type": "uint256"
            }
          ],
          "internalType": "struct AVAXGods.GameToken",
          "name": "",
          "type": "tuple"
        }
      ],
      "stateMutability": "view",
      "type": "function"
    },
    {
      "inputs": [],
      "name": "getTotalSupply",
      "outputs": [
        {
          "internalType": "uint256",
          "name": "",
          "type": "uint256"
        }
      ],
      "stateMutability": "view",
      "type": "function"
    },
    {
      "inputs": [
        {
          "internalType": "address",
          "name": "account",
          "type": "address"
        },
        {
          "internalType": "address",
          "name": "operator",
          "type": "address"
        }
      ],
      "name": "isApprovedForAll",
      "outputs": [
        {
          "internalType": "bool",
          "name": "",
          "type": "bool"
        }
      ],
      "stateMutability": "view",
      "type": "function"
    },
    {
      "inputs": [
        {
          "internalType": "string",
          "name": "_name",
          "type": "string"
        }
      ],
      "name": "isBattle",
      "outputs": [
        {
          "internalType": "bool",
          "name": "",
          "type": "bool"
        }
      ],
      "stateMutability": "view",
      "type": "function"
    },
    {
      "inputs": [
        {
          "internalType": "address",
          "name": "addr",
          "type": "address"
        }
      ],
      "name": "isPlayer",
      "outputs": [
        {
          "internalType": "bool",
          "name": "",
          "type": "bool"
        }
      ],
      "stateMutability": "view",
      "type": "function"
    },
    {
      "inputs": [
        {
          "internalType": "address",
          "name": "addr",
          "type": "address"
        }
      ],
      "name": "isPlayerToken",
      "outputs": [
        {
          "internalType": "bool",
          "name": "",
          "type": "bool"
        }
      ],
      "stateMutability": "view",
      "type": "function"
    },
    {
      "inputs": [
        {
          "internalType": "string",
          "name": "_name",
          "type": "string"
        }
      ],
      "name": "joinBattle",
      "outputs": [
        {
          "components": [
            {
              "internalType": "enum AVAXGods.BattleStatus",
              "name": "battleStatus",
              "type": "uint8"
            },
            {
              "internalType": "bytes32",
              "name": "battleHash",
              "type": "bytes32"
            },
            {
              "internalType": "string",
              "name": "name",
              "type": "string"
            },
            {
              "internalType": "address[2]",
              "name": "players",
              "type": "address[2]"
            },
            {
              "internalType": "uint8[2]",
              "name": "moves",
              "type": "uint8[2]"
            },
            {
              "internalType": "address",
              "name": "winner",
              "type": "address"
            }
          ],
          "internalType": "struct AVAXGods.Battle",
          "name": "",
          "type": "tuple"
        }
      ],
      "stateMutability": "nonpayable",
      "type": "function"
    },
    {
      "inputs": [],
      "name": "owner",
      "outputs": [
        {
          "internalType": "address",
          "name": "",
          "type": "address"
        }
      ],
      "stateMutability": "view",
      "type": "function"
    },
    {
      "inputs": [
        {
          "internalType": "address",
          "name": "",
          "type": "address"
        }
      ],
      "name": "playerInfo",
      "outputs": [
        {
          "internalType": "uint256",
          "name": "",
          "type": "uint256"
        }
      ],
      "stateMutability": "view",
      "type": "function"
    },
    {
      "inputs": [
        {
          "internalType": "address",
          "name": "",
          "type": "address"
        }
      ],
      "name": "playerTokenInfo",
      "outputs": [
        {
          "internalType": "uint256",
          "name": "",
          "type": "uint256"
        }
      ],
      "stateMutability": "view",
      "type": "function"
    },
    {
      "inputs": [
        {
          "internalType": "uint256",
          "name": "",
          "type": "uint256"
        }
      ],
      "name": "players",
      "outputs": [
        {
          "internalType": "address",
          "name": "playerAddress",
          "type": "address"
        },
        {
          "internalType": "string",
          "name": "playerName",
          "type": "string"
        },
        {
          "internalType": "uint256",
          "name": "playerMana",
          "type": "uint256"
        },
        {
          "internalType": "uint256",
          "name": "playerHealth",
          "type": "uint256"
        },
        {
          "internalType": "bool",
          "name": "inBattle",
          "type": "bool"
        }
      ],
      "stateMutability": "view",
      "type": "function"
    },
    {
      "inputs": [
        {
          "internalType": "string",
          "name": "_battleName",
          "type": "string"
        }
      ],
      "name": "quitBattle",
      "outputs": [],
      "stateMutability": "nonpayable",
      "type": "function"
    },
    {
      "inputs": [
        {
          "internalType": "string",
          "name": "_name",
          "type": "string"
        },
        {
          "internalType": "string",
          "name": "_gameTokenName",
          "type": "string"
        }
      ],
      "name": "registerPlayer",
      "outputs": [],
      "stateMutability": "nonpayable",
      "type": "function"
    },
    {
      "inputs": [],
      "name": "renounceOwnership",
      "outputs": [],
      "stateMutability": "nonpayable",
      "type": "function"
    },
    {
      "inputs": [
        {
          "internalType": "address",
          "name": "from",
          "type": "address"
        },
        {
          "internalType": "address",
          "name": "to",
          "type": "address"
        },
        {
          "internalType": "uint256[]",
          "name": "ids",
          "type": "uint256[]"
        },
        {
          "internalType": "uint256[]",
          "name": "amounts",
          "type": "uint256[]"
        },
        {
          "internalType": "bytes",
          "name": "data",
          "type": "bytes"
        }
      ],
      "name": "safeBatchTransferFrom",
      "outputs": [],
      "stateMutability": "nonpayable",
      "type": "function"
    },
    {
      "inputs": [
        {
          "internalType": "address",
          "name": "from",
          "type": "address"
        },
        {
          "internalType": "address",
          "name": "to",
          "type": "address"
        },
        {
          "internalType": "uint256",
          "name": "id",
          "type": "uint256"
        },
        {
          "internalType": "uint256",
          "name": "amount",
          "type": "uint256"
        },
        {
          "internalType": "bytes",
          "name": "data",
          "type": "bytes"
        }
      ],
      "name": "safeTransferFrom",
      "outputs": [],
      "stateMutability": "nonpayable",
      "type": "function"
    },
    {
      "inputs": [
        {
          "internalType": "address",
          "name": "operator",
          "type": "address"
        },
        {
          "internalType": "bool",
          "name": "approved",
          "type": "bool"
        }
      ],
      "name": "setApprovalForAll",
      "outputs": [],
      "stateMutability": "nonpayable",
      "type": "function"
    },
    {
      "inputs": [
        {
          "internalType": "string",
          "name": "newuri",
          "type": "string"
        }
      ],
      "name": "setURI",
      "outputs": [],
      "stateMutability": "nonpayable",
      "type": "function"
    },
    {
      "inputs": [
        {
          "internalType": "bytes4",
          "name": "interfaceId",
          "type": "bytes4"
        }
      ],
      "name": "supportsInterface",
      "outputs": [
        {
          "internalType": "bool",
          "name": "",
          "type": "bool"
        }
      ],
      "stateMutability": "view",
      "type": "function"
    },
    {
      "inputs": [
        {
          "internalType": "uint256",
          "name": "tokenId",
          "type": "uint256"
        }
      ],
      "name": "tokenURI",
      "outputs": [
        {
          "internalType": "string",
          "name": "",
          "type": "string"
        }
      ],
      "stateMutability": "view",
      "type": "function"
    },
    {
      "inputs": [],
      "name": "totalSupply",
      "outputs": [
        {
          "internalType": "uint256",
          "name": "",
          "type": "uint256"
        }
      ],
      "stateMutability": "view",
      "type": "function"
    },
    {
      "inputs": [
        {
          "internalType": "uint256",
          "name": "id",
          "type": "uint256"
        }
      ],
      "name": "totalSupply",
      "outputs": [
        {
          "internalType": "uint256",
          "name": "",
          "type": "uint256"
        }
      ],
      "stateMutability": "view",
      "type": "function"
    },
    {
      "inputs": [
        {
          "internalType": "address",
          "name": "newOwner",
          "type": "address"
        }
      ],
      "name": "transferOwnership",
      "outputs": [],
      "stateMutability": "nonpayable",
      "type": "function"
    },
    {
      "inputs": [
        {
          "internalType": "uint256",
          "name": "",
          "type": "uint256"
        }
      ],
      "name": "uri",
      "outputs": [
        {
          "internalType": "string",
          "name": "",
          "type": "string"
        }
      ],
      "stateMutability": "view",
      "type": "function"
    }
  ],
  "bytecode": "0x60806040523462000ab4576200501d803803806200001d8162000af9565b92833981019060208183031262000ab4578051906001600160401b03821162000ab4570181601f8201121562000ab4578051906001600160401b0382116200073c5762000074601f8301601f191660200162000af9565b928284526020838301011162000ab45760005b82811062000a9e57600083850160200152835184906001600160401b0381116200073c57600254600181811c9116801562000a93575b60208210146200071b57601f811162000a51575b50806020601f8211600114620009d957600091620009cd575b508160011b916000199060031b1c1916176002555b60038054336001600160a01b0319821681179092556040516001600160a01b03909116907f8be0079c531659141344cd1fd0a4f28419497f9722a3daafe3b4186f6b6457e090600090a380516001600160401b0381116200073c57600554600181811c91168015620009c2575b60208210146200071b57601f81116200098b575b50602091601f8211600114620009215791819260009262000915575b50508160011b916000199060031b1c1916176005555b604051608081016001600160401b038111828210176200073c57604052620001d962000ad9565b6000815281526020810190600082526040810160008152606082019060008252600b54680100000000000000008110156200073c576001810180600b558110156200076857600b600052925180519460029490941b7f0175b7a638427703f0dbe7bb9bbf987a2551717b34e79f33b5b1008d1fa01db90193906001600160401b0386116200073c578454600181811c911680156200090a575b60208210146200071b57601f8111620008d4575b50602090601f871160011462000865579580916003969760009262000859575b50508160011b9160001990871b1c19161785555b5160018501555160028401555191015560405160a081016001600160401b038111828210176200073c5760405260008152620002f562000ad9565b600081526020820152600060408201526000606082015260006080820152600a5490680100000000000000008210156200073c576001820180600a558210156200076857600a6000528051600583027fc65a7bb8d6351c1cf70c95a316cc6a92839c986682d98bc35f958f4883f9d2a890810180546001600160a01b0319166001600160a01b039390931692909217909155602082015180519093906001600160401b0381116200073c5760016005830284010154600181811c911680156200084e575b60208210146200071b57601f811162000810575b506020601f82116001146200078a57918160059260049594608097986000926200077e575b50508160011b916000199060031b1c1916176001838302850101555b60408601516002838302850101556060860151600383830285010155020101910151151560ff801983541691161790556200044862000ab9565b60008152600060208201526200045d62000ab9565b60008082526020820152604051916001600160401b0360c08401908111908411176200073c5760c0830160405260008352600060208401526200049f62000ad9565b60008152604084015260608301526080820152600060a0820152600c5490680100000000000000008210156200073c576001820180600c558210156200076857600c60005280517fdf6966c971051c3d54ec59162606531493a51404a002842f56009d7e5cf4a8c79060038110156200075257600784028201805460ff191660ff929092169190911781556020830151600182015560408301518051600290920191906001600160401b0382116200073c57825490600182811c9216801562000731575b60208310146200071b5781601f849311620006d9575b50602090601f83116001146200066e5760009262000662575b50508160011b916000199060031b1c19161790555b606082015160005b600281106200063c575050608082015192600093845b6002811062000614576007830284016005810187905560a086015160069190910180546001600160a01b0319166001600160a01b03929092169190911790556040516144c4908162000b398239f35b9094602060019160ff885116908460031b60ff811b9283911b169119161796019101620005c5565b81516001600160a01b0316600360078702850183010155602090910190600101620005af565b01519050868062000592565b6000858152602081209350601f198516905b818110620006c05750908460019594939210620006a6575b505050811b019055620005a7565b015160001960f88460031b161c1916905586808062000698565b9293602060018192878601518155019501930162000680565b6200070990856000526020600020601f850160051c8101916020861062000710575b601f0160051c019062000b1f565b8762000579565b9091508190620006fb565b634e487b7160e01b600052602260045260246000fd5b91607f169162000563565b634e487b7160e01b600052604160045260246000fd5b634e487b7160e01b600052602160045260246000fd5b634e487b7160e01b600052603260045260246000fd5b015190508880620003f2565b60016005840285010160005260206000209560005b601f1984168110620007f7575082608096976004969593600193600596601f19811610620007dd575b505050811b016001838302850101556200040e565b015160001960f88460031b161c19169055888080620007c8565b828201518855600190970196602092830192016200079f565b62000847906001600585028601016000526020600020601f840160051c810191602085106200071057601f0160051c019062000b1f565b85620003cd565b90607f1690620003b9565b015190508780620002a6565b90601f198716918660005260206000209260005b818110620008bb57509160019391896003999a9410620008a2575b505050811b018555620002ba565b015160001983891b60f8161c1916905587808062000894565b9293602060018192878601518155019501930162000879565b6200090390866000526020600020601f890160051c81019160208a106200071057601f0160051c019062000b1f565b8662000286565b90607f169062000272565b0151905082806200019c565b601f19821692600560005260206000209160005b858110620009725750836001951062000958575b505050811b01600555620001b2565b015160001960f88460031b161c1916905582808062000949565b9192602060018192868501518155019401920162000935565b620009bb9060056000526020600020601f840160051c810191602085106200071057601f0160051c019062000b1f565b8262000180565b90607f16906200016c565b905082015183620000ea565b6002600090815260008051602062004ffd8339815191529250601f198416905b81811062000a385750908360019493921062000a1e575b5050811b01600255620000ff565b84015160001960f88460031b161c19169055838062000a10565b91926020600181928689015181550194019201620009f9565b600260005262000a8c9060008051602062004ffd833981519152601f840160051c810191602085106200071057601f0160051c019062000b1f565b82620000d1565b90607f1690620000bd565b8060208092840101518282870101520162000087565b600080fd5b60408051919082016001600160401b038111838210176200073c57604052565b60405190602082016001600160401b038111838210176200073c57604052565b6040519190601f01601f191682016001600160401b038111838210176200073c57604052565b81811062000b2b575050565b6000815560010162000b1f56fe6080604052600436101561001257600080fd5b60003560e01c8062fdd58e14612e2d578063015a379214612d4457806301ffc9a714612cd657806302fe530514612baf5780630677aa4e14612b9357806309c95e1014612b705780630daea2cd14612b545780630e89341c14612aa357806310898e4c14612a6b5780631107ae3d14612a3157806316801d17146129e757806318160ddd146109d25780632711162e146129ad5780632ca04522146128305780632eb2c2d6146123ef5780633835e2b5146123935780634b114691146123595780634e1273f4146121bb5780634f558e791461218d5780635c12cd4b146121555780635c93fc3d1461206c578063606d2e9614611fe55780636c0360eb14611f035780636e35ca3114611ee7578063703730a514611ecb578063715018a614611e69578063845f433b14611b785780638da5cb5b14611b4f578063996d7bea14611a7c5780639b09cc8714611a265780639e4ecd1114611a0a5780639ec40aa3146119d2578063a1b4f57c146117b8578063a22cb465146116cb578063b5a527e0146116af578063ba27495614610ad8578063bd85b03914610aac578063bf034b6914610a1d578063bf103a4d146109f0578063c4e41b22146109d2578063c87b56dd146108c6578063de96cefc146108aa578063e985e9c514610854578063efa1c4821461076b578063f1da73391461074f578063f242432a14610386578063f2fde38b146102ba5763f71d96cb1461022b57600080fd5b346102b55760203660031901126102b557600435600a548110156102b557600a6000526005602060002091020160018060a01b0381541661026e6001830161320f565b9160028101549060ff60046003830154920154169061029f604051958695865260a0602087015260a0860190612eab565b9260408501526060840152151560808301520390f35b600080fd5b346102b55760203660031901126102b5576102d3612e5c565b6102db6132f3565b6001600160a01b0390811690811561033257600380546001600160a01b03198116841790915560405160009390929091167f8be0079c531659141344cd1fd0a4f28419497f9722a3daafe3b4186f6b6457e08484a3f35b60405162461bcd60e51b815260206004820152602660248201527f4f776e61626c653a206e6577206f776e657220697320746865207a65726f206160448201526564647265737360d01b6064820152608490fd5b346102b55760a03660031901126102b55761039f612e5c565b6103a7612e72565b90608480356001600160401b0381116102b5576103c8903690600401612fac565b6001600160a01b03919083831633148015610724575b6103e790613416565b828516156103f5811561347a565b61040060443561368d565b61040b60643561368d565b91858716156106c4575b610604575b5050604435600052602094600086526040600020848616600052865260406000205461044a6064358210156134d4565b60443560005260008752604060002085871660005287526064359003604060002055604435600052600086526040600020848216600052865260406000206104956064358254613533565b905560405160443581526064358782015284821690858716907fc3d58168c5ae7397731d063d5bbf3d657854427343f4c083240f7aacaa2d0f6260403392a4803b6104dd575b005b60a06000610527958895604051978896879586938563f23a6e6160e01b9d8e87523360048801521660248601526044356044860152606435606486015284015260a4830190612eab565b0393165af1600091816105d5575b506105ab5750506001906105476135a9565b6308c379a014610576575b5061055957005b60405162461bcd60e51b81528061057260048201613638565b0390fd5b61057e6135c7565b908161058a5750610552565b61057260405192839262461bcd60e51b845260048401526024830190612eab565b6001600160e01b0319161490506104db5760405162461bcd60e51b81528061057260048201613560565b6105f6919250843d86116105fd575b6105ee8183612f70565b810190613540565b9084610535565b503d6105e4565b92959194909360005b84518110156106b5576106208186613402565b519061062c8188613402565b518260005260046020526040600020548181106106605761065b936000526004602052036040600020556133d0565b61060d565b60405162461bcd60e51b815260206004820152602860248201527f455243313135353a206275726e20616d6f756e74206578636565647320746f74604482015267616c537570706c7960c01b60648201528b90fd5b5093509390949150858061041a565b959260009794919592975b865181101561071657806106e6610711928b613402565b516106f1828a613402565b51600052600460205261070a6040600020918254613533565b90556133d0565b6106cf565b509295969194909396610415565b5082841660005260016020526040600020336000526020526103e760ff6040600020541690506103de565b346102b55760003660031901126102b557602060405160048152f35b346102b55760003660031901126102b557600a54610788816130af565b906107966040519283612f70565b808252600a6000908152602091828401917fc65a7bb8d6351c1cf70c95a316cc6a92839c986682d98bc35f958f4883f9d2a8835b8383106108315750505050604051918083019381845251809452604083019360408160051b85010192916000955b8287106108055785850386f35b909192938280610821600193603f198a82030186528851613158565b96019201960195929190926107f8565b600586600192610843859a999a6136d8565b8152019201920191909594956107ca565b346102b55760403660031901126102b55761086d612e5c565b610875612e72565b9060018060a01b03809116600052600160205260406000209116600052602052602060ff604060002054166040519015158152f35b346102b55760003660031901126102b557602060405160018152f35b346102b5576020806003193601126102b5576108e36004356143a7565b906040519182600091600554926108f9846131d5565b6001948686821691826000146109ad57505060011461096b575b509264173539b7b760d91b6006939285602f60f81b610953975261093f825180938a8785019101612e88565b019182015203601919810185520183612f70565b610967604051928284938452830190612eab565b0390f35b8591506005600052816000206000905b82821061099557505083010164173539b7b760d91b610913565b8054898301850152889550879390910190860161097b565b60ff1916818701528215159092028501909101915064173539b7b760d91b9050610913565b346102b55760003660031901126102b5576020600654604051908152f35b346102b55760203660031901126102b5576020610a13610a0e612e5c565b6137c8565b6040519015158152f35b346102b55760203660031901126102b557600435600b548110156102b557600b600052610a989060021b7f0175b7a638427703f0dbe7bb9bbf987a2551717b34e79f33b5b1008d1fa01db901610a728161320f565b906001810154906003600282015491015490604051948594608086526080860190612eab565b926020850152604084015260608301520390f35b346102b55760203660031901126102b55760043560005260046020526020604060002054604051908152f35b346102b55760403660031901126102b55760043560ff81168091036102b55760249081356001600160401b0381116102b557610b18903690600401612fac565b90610b2282613a06565b805160038110156116265760010361163b5780516003811015611626576002146115e7576060810190815160018060a01b0381511633149081156115d0575b501561158c57608001518151516001600160a01b03163303611584576000905b600260ff8316101561148057611fe060ff9260051b160151166115405751516001600160a01b031633036115395760005b6001821480801561152f575b156114eb57156114e45760036040610bd533613728565b015110155b156114955760405191610c0b84519360208181880196610bfb81838a612e88565b81016009815203019020546131a0565b5090600260ff8416101561148057601f6005610c4193600786831c160101931683549060031b60ff811b9283911b169119161790565b90556080610c4e83613a06565b0180515160ff166114775760ff60005b166002039060ff82116111fa57516020015160ff1661146d5760ff8060005b1691160360ff811161111a5760ff16906001820361146257610cad6001915b604051809281928751928391612e88565b8101039020901515907f54b82b77e7ae55a8e6c9e89deba70c7191dea2a3b08ae647b380e9f981d6a0f86000604051a315610ce457005b610ced90613a06565b606081015180516001600160a01b0316331490811561144b575b50156113f357608081015160ff815116151590816113e2575b50156113945760018060a01b0360608201515116600052600760205260406000205460ff608083015151166060610d6260018060a01b03828601515116613728565b0151606084015151604090610d7f906001600160a01b0316613847565b015160608581015151919291610d9d906001600160a01b0316613847565b01519260405194610dad86612f3a565b8552602085015260408401526060830152608082015260018060a01b0360206060840151015116600052600760205260406000205460ff602060808501510151166060610e0860018060a01b03602083880151015116613728565b0151606085015160200151604090610e28906001600160a01b0316613847565b015160608681015160200151919291610e49906001600160a01b0316613847565b01519260405194610e5986612f3a565b8552602085015260408401526060830152608082015260405191610e7c83612f04565b600083526000602084015282602082015160018114808091611386575b15611144575050506060810151604083015111611069575050606082015151610ecc9083906001600160a01b0316614244565b505b604051906000825b600282106110495750505060407fc6bf860cbc15f7020f73993a671f01bbb1831a8a7a12c126ca735eb632e7577591a160006080820151526000602060808301510152610f278160408101516141da565b606081015151610f3f906001600160a01b0316613fbe565b60018060a01b03606083015151166000526008602052806002610f666040600020546132b5565b500155600a03600a81116110345760018060a01b036060830151511660005260086020526003610f9a6040600020546132b5565b500155606081015160200151610fb8906001600160a01b0316613fbe565b60018060a01b03602060608401510151166000526008602052806002610fe26040600020546132b5565b500155600a0391600a831161102057506020606060018060a01b039201510151166000526008602052600361101b6040600020546132b5565b500155005b634e487b7160e01b60009081526011600452fd5b82634e487b7160e01b60005260116004526000fd5b82516001600160a01b031681526020928301926001929092019101610ed6565b60608201516040820151811061109f575050506060820151602001516110999083906001600160a01b0316614244565b50610ece565b6002929350906110e0916110c260036110b884516132d4565b5001918254613fb1565b905560608101516110d860036110b887516132d4565b9055516132d4565b50018054600219928382019291831161112f576002926111019255516132d4565b5001805491820191821161111a57556060810151610ece565b83634e487b7160e01b60005260116004526000fd5b85634e487b7160e01b60005260116004526000fd5b80611378575b1561123257506111636040840151608085015190613533565b6060830151909290918383106111925750505060608401515161109992508491506001600160a01b0316614244565b6002936111c5938060808801511160001461120f5750505060408401515b60036111bc86516132d4565b500155516132d4565b5001805460021981019290831161112f576002926111e49255516132d4565b5001805490600382018092116111fa5755610ece565b84634e487b7160e01b60005260116004526000fd5b61121891613fb1565b6060880151602001516001600160a01b03169091526111b0565b600214808061136a575b1561130657506112556040830151608084015190613533565b6060840151909290918383106112875750505060608401516020015161109992508491506001600160a01b0316614244565b6002936112b193806080850151116000146112e65750505060408101515b60036111bc83516132d4565b50018054916003830180931161112f576002926112cf9255516132d4565b500180546002198101919082116111fa5755610ece565b6112ef91613fb1565b6060880151516001600160a01b03169091526112a5565b90508061135c575b61131a575b5050610ece565b611326600291516132d4565b50018054916003830180931161112f576002926113449255516132d4565b5001805490600382018092116111fa57558380611313565b50600260208301511461130e565b50600160208501511461123c565b50600260208501511461114a565b506001602086015114610e99565b60405162461bcd60e51b8152602060048201526021818401527f506c6179657273207374696c6c206e65656420746f206d616b652061206d6f766044820152606560f81b6064820152608490fd5b60ff91506020015116151583610d20565b60405162461bcd60e51b815260206004820152602b818401527f4f6e6c7920706c617965727320696e207468697320626174746c652063616e2060448201526a6d616b652061206d6f766560a81b6064820152608490fd5b602001516001600160a01b03163314905083610d07565b610cad600091610c9c565b60ff806001610c7d565b60ff6001610c5e565b85634e487b7160e01b60005260326004526000fd5b60405162461bcd60e51b8152602060048201526022818601527f4d616e61206e6f742073756666696369656e7420666f722061747461636b696e604482015261672160f01b6064820152608490fd5b6001610bda565b60405162461bcd60e51b815260206004820152601f818701527f43686f6963652073686f756c64206265206569746865722031206f72203221006044820152606490fd5b5060028314610bbe565b6001610bb2565b60405162461bcd60e51b815260206004820152601d818601527f596f75206861766520616c7265616479206d6164652061206d6f7665210000006044820152606490fd5b600190610b81565b60405162461bcd60e51b815260206004820152601a818701527f596f7520617265206e6f7420696e207468697320626174746c650000000000006044820152606490fd5b602001516001600160a01b03163314905086610b61565b60405162461bcd60e51b8152602060048201526018818601527710985d1d1b19481a185cc8185b1c9958591e48195b99195960421b6044820152606490fd5b84634e487b7160e01b60005260216004526000fd5b60405162461bcd60e51b8152602060048201526041818601527f426174746c65206e6f7420737461727465642e20506c656173652074656c6c2060448201527f616e6f7468657220706c6179657220746f206a6f696e2074686520626174746c6064820152606560f81b608482015260a490fd5b346102b55760003660031901126102b557602060405160008152f35b346102b55760403660031901126102b5576116e4612e5c565b60243590811515908183036102b5576001600160a01b031691338314611761576117339033600052600160205260406000208460005260205260406000209060ff801983541691151516179055565b6040519081527f17307eab39ab6107e8899845ad3d59bd9653f200f220920489ca2b5937696c3160203392a3005b60405162461bcd60e51b815260206004820152602960248201527f455243313135353a2073657474696e6720617070726f76616c20737461747573604482015268103337b91039b2b63360b91b6064820152608490fd5b346102b5576020806003193601126102b5576004356001600160401b0381116102b5576117e9903690600401612fac565b906117f26138f7565b506117fc82613a06565b91825160038110156119bc5761197d576060830180515190916001600160a01b03918216331461192e57608061183133613728565b01516118f5578461184b91600182523386865101526141da565b80825151166000526007835260046118676040600020546132d4565b500160ff19906001828254161790558184845101511660005260078452600160046118966040600020546132d4565b5001918254161790556040840151915151167f024187b16c217a79f8d8e6252b542ec6e278fa91304acd9cfd866f2bbf00bd08604051848152806118de339587830190612eab565b0390a3610967604051928284938452830190613000565b60405162461bcd60e51b8152600481018590526011602482015270416c726561647920696e20626174746c6560781b6044820152606490fd5b60405162461bcd60e51b815260048101859052602160248201527f4f6e6c7920706c617965722074776f2063616e206a6f696e206120626174746c6044820152606560f81b6064820152608490fd5b60405162461bcd60e51b8152600481018390526017602482015276426174746c6520616c726561647920737461727465642160481b6044820152606490fd5b634e487b7160e01b600052602160045260246000fd5b346102b55760203660031901126102b5576004356001600160401b0381116102b557611a056104db913690600401612fac565b613ae2565b346102b55760003660031901126102b557602060405160058152f35b346102b55760203660031901126102b5576004356001600160401b0381116102b5576080611a62611a5d6040933690600401612fac565b613a06565b015160ff6020818351169201511682519182526020820152f35b346102b55760203660031901126102b5576004356001600160401b0381116102b557611a5d611aaf913690600401612fac565b6060810190815160018060a01b0390818151163314908115611b3f575b5015611afa578251518116338103611aee575060206104db9351015116614244565b90506104db9250614244565b60405162461bcd60e51b815260206004820152601b60248201527f596f7520617265206e6f7420696e207468697320626174746c652100000000006044820152606490fd5b6020015182163314905084611acc565b346102b55760003660031901126102b5576003546040516001600160a01b039091168152602090f35b346102b55760403660031901126102b5576001600160401b036004358181116102b557611ba9903690600401612fac565b6024358281116102b557611bc1903690600401612fac565b611bca336136b2565b611e2857600a54604051611bdd81612f3a565b33815260209485820185815260408301600a8152606084019160198352608085019360008552600160401b871015611dfc5760018701600a55611c1f876132d4565b969096611e12575186546001600160a01b0319166001600160a01b03919091161786559051805160018701929091908211611dfc57611c5e83546131d5565b8b601f8211611dc0575b50508a90601f8311600114611d245794611cee94611d01989484600495611d149d9a957f81ef79d1cda814a60c0fc60792e648a06d9c6bae67176346d1cc8b63030bfccd9f9d9a600092611d19575b50508160011b916000199060031b1c19161790555b51600285015551600384015551151591019060ff801983541691151516179055565b3360005260078752604060002055613ae2565b6040519182918583523395830190612eab565b0390a2005b015190503880611cb7565b60008481528c8120929190601f198516908e5b828210611da857505094600185611d149d9a957f81ef79d1cda814a60c0fc60792e648a06d9c6bae67176346d1cc8b63030bfccd9f9d9a95611cee9a95600499611d019f9b10611d8f575b505050811b019055611ccc565b015160001960f88460031b161c19169055388080611d82565b80600186978294978701518155019601940190611d37565b611deb91856000528160002090601f860160051c8201928610611df2575b601f0160051c0190613a7f565b8b8b611c68565b9091508190611dde565b634e487b7160e01b600052604160045260246000fd5b634e487b7160e01b600052600060045260246000fd5b60405162461bcd60e51b8152602060048201526019602482015278141b185e595c88185b1c9958591e481c9959da5cdd195c9959603a1b6044820152606490fd5b346102b55760003660031901126102b557611e826132f3565b600380546001600160a01b0319811690915560405160009182906001600160a01b03167f8be0079c531659141344cd1fd0a4f28419497f9722a3daafe3b4186f6b6457e08284a3f35b346102b55760003660031901126102b557602060405160028152f35b346102b55760003660031901126102b557602060405160078152f35b346102b55760003660031901126102b557604051600090600554611f26816131d5565b808352600191808316908115611fbd5750600114611f63575b61096783611f4f81870382612f70565b604051918291602083526020830190612eab565b6005600090815260209450917f036b6384b5eca791c62761152d0c79bb0604c104a5fb6f4eb0703f3154bb3db05b828410611faa57505050810190910190611f4f81611f3f565b8054858501870152928501928101611f91565b6109679550611f4f93506020915091849260ff191682840152151560051b8201019350611f3f565b346102b55760203660031901126102b557600435600c548110156102b55761204c90600c6000526007602060002091020160ff815416906120626001820154916120316002820161320f565b90600660018060a01b03910154169260405195868096612ff3565b6020850152608060408501526080840190612eab565b9060608301520390f35b346102b55760003660031901126102b557600c54612089816130af565b906120976040519283612f70565b808252600c6000908152602091828401917fdf6966c971051c3d54ec59162606531493a51404a002842f56009d7e5cf4a8c7835b8383106121325750505050604051918083019381845251809452604083019360408160051b85010192916000955b8287106121065785850386f35b909192938280612122600193603f198a82030186528851613000565b96019201960195929190926120f9565b600786600192612144859a999a613946565b8152019201920191909594956120cb565b346102b55760203660031901126102b557610967612179612174612e5c565b613728565b604051918291602083526020830190613158565b346102b55760203660031901126102b557600435600052600460205260206040600020541515604051908152f35b346102b55760403660031901126102b5576004356001600160401b038082116102b557366023830112156102b5578160040135906121f8826130af565b926122066040519485612f70565b82845260209260248486019160051b830101913683116102b557602401905b82821061233a575050506024359081116102b5576122479036906004016130c6565b82518151036122e35782519261225c846130af565b9361226a6040519586612f70565b808552612279601f19916130af565b01368486013760005b81518110156122cc576122c7906122b76001600160a01b036122a48386613402565b51166122b08387613402565b519061334b565b6122c18288613402565b526133d0565b612282565b505050610967604051928284938452830190613124565b60405162461bcd60e51b815260048101839052602960248201527f455243313135353a206163636f756e747320616e6420696473206c656e677468604482015268040dad2e6dac2e8c6d60bb1b6064820152608490fd5b81356001600160a01b03811681036102b5578152908401908401612225565b346102b55760203660031901126102b5576001600160a01b0361237a612e5c565b1660005260076020526020604060002054604051908152f35b346102b55760203660031901126102b5576004356001600160401b0381116102b5576123dc60206123c981933690600401612fac565b8160405193828580945193849201612e88565b8101600981520301902054604051908152f35b346102b55760031960a0368201126102b557612409612e5c565b90612412612e72565b906001600160401b03604480358281116102b5576124349036906004016130c6565b9060649081358481116102b55761244f9036906004016130c6565b9460849485359081116102b55761246a903690600401612fac565b6001600160a01b0398891698909190338a148015612807575b61248c90613416565b85518851036127b45788169586156124a4811561347a565b8a15612771575b6126ac575b60005b865181101561254357806124ca61253e9289613402565b518c6124d6838d613402565b5191806000528260209260008452604060002081600052845260406000205490612502838310156134d4565b8360005260008552604060002090600052845203604060002055600052600081526040600020908b6000525261070a6040600020918254613533565b6124b3565b5090919293968998878a604051604081527f4a39dc06d4c0dbc64b70af90fd698a233a518aa5d07e595d983b8c0526c8f7fb612582604083018c613124565b91808303602082015280612597339489613124565b0390a43b6125a157005b604051978896879663bc197c8160e01b9b8c89523360048a01526024890152870160a0905260a487016125d391613124565b908487830301908701526125e691613124565b9184830301908401526125f891612eab565b03815a602094600091f16000918161268c575b50612664575050600161261c6135a9565b6308c379a01461262d575b61055957005b6126356135c7565b806126405750612627565b60405162461bcd60e51b815260206004820152908190610572906024830190612eab565b6001600160e01b031916146104db5760405162461bcd60e51b81528061057260048201613560565b6126a591925060203d81116105fd576105ee8183612f70565b908361260b565b96949398929590979160005b8551811015612762576126cb8187613402565b516126d68289613402565b5190806000526020600481526040600020549183831061270f5761270a9493929160049160005252036040600020556133d0565b6126b8565b508b9067616c537570706c7960c01b8f7f455243313135353a206275726e20616d6f756e74206578636565647320746f748e6040519462461bcd60e51b8652600486015260286024860152840152820152fd5b509197909592989394966124b0565b98959996949392919060005b8b518110156127a557808c6106f1826127996127a0958f613402565b5192613402565b61277d565b509091929394969995986124ab565b60405162461bcd60e51b815260206004820152602860248201527f455243313135353a2069647320616e6420616d6f756e7473206c656e6774682081860152670dad2e6dac2e8c6d60c31b818701528790fd5b5089600052600160205260406000203360005260205261248c60ff604060002054169050612483565b346102b5576020806003193601126102b5576004356001600160401b0381116102b557612861903690600401612fac565b9061286a6138f7565b5061287c612877336136b2565b613a96565b612885826138c6565b6129705780604051818101908282526128b3816128a56040820188612eab565b03601f198101835282612f70565b519020926040516128c381612f04565b338152600083820152604051906128d982612f04565b60008252600084830152604051956128f087612f1f565b600087528487015282604087015260608601526080850152600060a085015261292b600c549283928160405193828580945193849201612e88565b8101600981520301902055600160401b811015611dfc578261295682600161295c9401600c556131a0565b9061400a565b610967604051928284938452830190613000565b6064906040519062461bcd60e51b825260048201526016602482015275426174746c6520616c7265616479206578697374732160501b6044820152fd5b346102b55760203660031901126102b5576001600160a01b036129ce612e5c565b1660005260086020526020604060002054604051908152f35b346102b55760203660031901126102b5576004356001600160401b0381116102b557612a1d611a5d610967923690600401612fac565b604051918291602083526020830190613000565b346102b55760203660031901126102b5576004356001600160401b0381116102b557610a13612a666020923690600401612fac565b6138c6565b346102b55760203660031901126102b557610967612a8f612a8a612e5c565b613847565b604051918291602083526020830190612ed0565b346102b5576020806003193601126102b5576040519060008260025491612ac9836131d5565b92838352600190858282169182600014612b34575050600114612af4575b5061095392500383612f70565b849150600260005281600020906000915b858310612b1c575050610953935082010185612ae7565b80548389018501528794508693909201918101612b05565b60ff19168582015261095395151560051b8501019250879150612ae79050565b346102b55760003660031901126102b5576020604051600a8152f35b346102b55760203660031901126102b5576020610a13612b8e612e5c565b6136b2565b346102b55760003660031901126102b557602060405160038152f35b346102b5576020806003193601126102b5576001600160401b036004358181116102b557612be1903690600401612fac565b91612bea6132f3565b8251918211611dfc57612bfe6002546131d5565b601f8111612ca5575b5080601f8311600114612c4157508192600092612c36575b50508160011b916000199060031b1c191617600255005b015190508280612c1f565b90601f19831693600260005282600020926000905b868210612c8d5750508360019510612c74575b505050811b01600255005b015160001960f88460031b161c19169055828080612c69565b80600185968294968601518155019501930190612c56565b612cd090600260005282600020601f850160051c810191848610611df257601f0160051c0190613a7f565b83612c07565b346102b55760203660031901126102b55760043563ffffffff60e01b81168091036102b557602090636cdb3d1360e11b8114908115612d33575b8115612d22575b506040519015158152f35b6301ffc9a760e01b14905082612d17565b6303a24d0760e21b81149150612d10565b346102b55760003660031901126102b557600b54612d61816130af565b90612d6f6040519283612f70565b808252600b6000908152602091828401917f0175b7a638427703f0dbe7bb9bbf987a2551717b34e79f33b5b1008d1fa01db9835b838310612e0a5750505050604051918083019381845251809452604083019360408160051b85010192916000955b828710612dde5785850386f35b909192938280612dfa600193603f198a82030186528851612ed0565b9601920196019592919092612dd1565b600486600192612e1c859a999a61380e565b815201920192019190959495612da3565b346102b55760403660031901126102b5576020612e54612e4b612e5c565b6024359061334b565b604051908152f35b600435906001600160a01b03821682036102b557565b602435906001600160a01b03821682036102b557565b60005b838110612e9b5750506000910152565b8181015183820152602001612e8b565b90602091612ec481518092818552858086019101612e88565b601f01601f1916010190565b90606080612ee78451608085526080850190612eab565b936020810151602085015260408101516040850152015191015290565b604081019081106001600160401b03821117611dfc57604052565b60c081019081106001600160401b03821117611dfc57604052565b60a081019081106001600160401b03821117611dfc57604052565b608081019081106001600160401b03821117611dfc57604052565b90601f801991011681019081106001600160401b03821117611dfc57604052565b6001600160401b038111611dfc57601f01601f191660200190565b81601f820112156102b557803590612fc382612f91565b92612fd16040519485612f70565b828452602083830101116102b557816000926020809301838601378301015290565b9060038210156119bc5752565b9061300c818351612ff3565b60209182810151838301526130306040820151610100806040860152840190612eab565b926060820151606084016000905b83600283106130915750505050608082015190600060a085015b60028210613079575050505060e09060a0600180821b039101511691015290565b828060019260ff875116815201940191019092613058565b83516001600160a01b0316825292830192600192909201910161303e565b6001600160401b038111611dfc5760051b60200190565b81601f820112156102b5578035916130dd836130af565b926130eb6040519485612f70565b808452602092838086019260051b8201019283116102b5578301905b828210613115575050505090565b81358152908301908301613107565b90815180825260208080930193019160005b828110613144575050505090565b835185529381019392810192600101613136565b9060018060a01b038251168152608080613181602085015160a0602086015260a0850190612eab565b9360408101516040850152606081015160608501520151151591015290565b600c548110156131bf57600c6000526007602060002091020190600090565b634e487b7160e01b600052603260045260246000fd5b90600182811c92168015613205575b60208310146131ef57565b634e487b7160e01b600052602260045260246000fd5b91607f16916131e4565b9060405191826000825492613223846131d5565b908184526001948581169081600014613292575060011461324f575b505061324d92500383612f70565b565b9093915060005260209081600020936000915b81831061327a57505061324d9350820101388061323f565b85548884018501529485019487945091830191613262565b91505061324d94506020925060ff191682840152151560051b820101388061323f565b600b548110156131bf57600b60005260206000209060021b0190600090565b600a548110156131bf57600a6000526005602060002091020190600090565b6003546001600160a01b0316330361330757565b606460405162461bcd60e51b815260206004820152602060248201527f4f776e61626c653a2063616c6c6572206973206e6f7420746865206f776e65726044820152fd5b6001600160a01b031690811561337857600052600060205260406000209060005260205260406000205490565b60405162461bcd60e51b815260206004820152602a60248201527f455243313135353a2061646472657373207a65726f206973206e6f742061207660448201526930b634b21037bbb732b960b11b6064820152608490fd5b60001981146133df5760010190565b634e487b7160e01b600052601160045260246000fd5b8051156131bf5760200190565b80518210156131bf5760209160051b010190565b1561341d57565b60405162461bcd60e51b815260206004820152602f60248201527f455243313135353a2063616c6c6572206973206e6f7420746f6b656e206f776e60448201526e195c881b9bdc88185c1c1c9bdd9959608a1b6064820152608490fd5b1561348157565b60405162461bcd60e51b815260206004820152602560248201527f455243313135353a207472616e7366657220746f20746865207a65726f206164604482015264647265737360d81b6064820152608490fd5b156134db57565b60405162461bcd60e51b815260206004820152602a60248201527f455243313135353a20696e73756666696369656e742062616c616e636520666f60448201526939103a3930b739b332b960b11b6064820152608490fd5b919082018092116133df57565b908160209103126102b557516001600160e01b0319811681036102b55790565b60809060208152602860208201527f455243313135353a204552433131353552656365697665722072656a656374656040820152676420746f6b656e7360c01b60608201520190565b60009060033d116135b657565b905060046000803e60005160e01c90565b600060443d1061362457604051600319913d83016004833e81516001600160401b03918282113d6024840111176136275781840194855193841161362f573d85010160208487010111613627575061362492910160200190612f70565b90565b949350505050565b50949350505050565b60809060208152603460208201527f455243313135353a207472616e7366657220746f206e6f6e20455243313135356040820152732932b1b2b4bb32b91034b6b83632b6b2b73a32b960611b60608201520190565b6040519061369a82612f04565b60018252602036818401376136ae826133f5565b5290565b6001600160a01b03166000908152600760205260409020546136d357600090565b600190565b906040516136e581612f3a565b608060ff6004839560018060a01b0381541685526137056001820161320f565b602086015260028101546040860152600381015460608601520154161515910152565b608060405161373681612f3a565b600091818380935260606020820152826040820152826060820152015261375c826136b2565b1561378b576001600160a01b0390911681526007602052604090205461362490613785906132d4565b506136d8565b60405162461bcd60e51b8152602060048201526015602482015274506c6179657220646f65736e27742065786973742160581b6044820152606490fd5b6001600160a01b03166000908152600860205260409020546136d357600090565b604051906137f682612f55565b60006060838181528260208201528260408201520152565b9060405161381b81612f55565b60606003829461382a8161320f565b845260018101546020850152600281015460408501520154910152565b61384f6137e9565b50613859816137c8565b156138855760018060a01b0316600052600860205261362461387f6040600020546132b5565b5061380e565b60405162461bcd60e51b815260206004820152601960248201527847616d6520746f6b656e20646f65736e27742065786973742160381b6044820152606490fd5b60206138df918160405193828580945193849201612e88565b8101600981520301902054156000146136d357600090565b604090600060a0835161390981612f1f565b8094838252836020830152606081830152805161392581612f04565b81368237606083015280519061393a82612f04565b36823760808201520152565b9060405161395381612f1f565b809260ff81541660038110156119bc578252600180820154906020918285015260029061398182850161320f565b60408601526040519182600386016000915b8383106139ea57505050505090816139ad60a09493612f04565b60608501526040519060ff6005840154818116845260081c16908201526139d381612f04565b6080840152600601546000196001831b0116910152565b81546001600160a01b0316815291840191908401908601613993565b613a0e6138f7565b50613a18816138c6565b15613a4257613a3c610bfb6020613624938160405193828580945193849201612e88565b50613946565b60405162461bcd60e51b8152602060048201526015602482015274426174746c6520646f65736e27742065786973742160581b6044820152606490fd5b818110613a8a575050565b60008155600101613a7f565b15613a9d57565b60405162461bcd60e51b815260206004820152601c60248201527f506c6561736520526567697374657220506c61796572204669727374000000006044820152606490fd5b6080613aed33613728565b0151613f7457613aff612877336136b2565b613b076137e9565b50613b1133613fbe565b80600a0390600a82116133df576040908151602090818101904282523360601b858201526034815260608101966001600160401b0392828910848a1117611dfc5760ff60646006928b8a528551902006160660ff8116918215613f5e575b60ff9250613b7c8a612f55565b89521696608082019188835260c060a08201918783520190888252600b5493600160401b851015611dfc57600195868601600b55613bb9866132b5565b959095611e1257518051918211611dfc57613bd486546131d5565b601f8111613f2e575b508890601f8311600114613ec6576003959493929160009183613ebb575b505060001982871b1c191690881b1785555b518685015551600284015551910155336000526008835284600020558351613c3481612f04565b600381526203078360ec1b838201523315613e6d57613c528761368d565b82865191613c5f83612f04565b81835285368185013781613c72846133f5565b526000825b613e29575b50505050866000526000835284600020336000528352846000208054908382018092116133df575584518781528284820152600033917fc3d58168c5ae7397731d063d5bbf3d657854427343f4c083240f7aacaa2d0f62883392a4333b613d21575b5050613ceb6006546133d0565b60065582519485528401528201527fca8ab07e9ed17d119729fc652dd24df9d8430ca862dda4631925b5b4b99da36260603392a2565b8451838180613d5f63f23a6e6160e01b95868352336004840152600060248401528c604484015287606484015260a0608484015260a4830190612eab565b03816000335af160009181613e0a575b50613de1575050613d7e6135a9565b6308c379a014613dad575b613d95575b3880613cde565b825162461bcd60e51b81528061057260048201613638565b613db56135c7565b80613dc05750613d89565b82610572865192839262461bcd60e51b845260048401526024830190612eab565b6001600160e01b031916149050613d8e57825162461bcd60e51b81528061057260048201613560565b613e22919250853d87116105fd576105ee8183612f70565b9038613d6f565b8151811015613e685780613e40613e629286613402565b51613e4b8285613402565b516000526004895261070a8b600020918254613533565b82613c77565b613c7c565b845162461bcd60e51b815260048101849052602160248201527f455243313135353a206d696e7420746f20746865207a65726f206164647265736044820152607360f81b6064820152608490fd5b015190503880613bfb565b949392918891601f19821690886000528b6000209160005b8d828210613f18575050978360039910613f00575b505050811b018555613c0d565b015160001983891b60f8161c19169055388080613ef3565b838b015185558d96909401939283019201613ede565b613f5890876000528a600020601f850160051c8101918c8610611df257601f0160051c0190613a7f565b38613bdd565b905060ff82146133df57600160ff920190613b6f565b60405162461bcd60e51b8152602060048201526015602482015274506c6179657220697320696e206120626174746c6560581b6044820152606490fd5b919082039182116133df57565b600a9060405160208101914483524260408301526bffffffffffffffffffffffff199060601b16606082015260548152613ff781612f55565b5190200680156140045790565b50600590565b929190611e12578051926003808510156119bc5760ff1982541660ff80961617825560209081840151906001918285015560029081850160408701518051906001600160401b038211611dfc57819061406384546131d5565b601f81116141aa575b508790601f83116001146141485760009261413d575b505060001982851b1c191690851b1790555b606086015160005b8381106141215750505090608085015191600093845b8281106140f1575050505050600582015560a09091015160069190910180546001600160a01b0319166001600160a01b03929092169190911790559050565b909192826141158697848d85995116919060031b60ff811b9283911b169119161790565b960194939291016140b2565b81516001600160a01b031687820184015590850190840161409c565b015190503880614082565b90879350601f1983169185600052896000209260005b8b828210614194575050841161417c575b505050811b019055614094565b015160001983871b60f8161c1916905538808061416f565b8385015186558b9790950194938401930161415e565b6141d4908560005289600020601f850160051c8101918b8610611df257601f0160051c0190613a7f565b3861406c565b906141e4826138c6565b1561420857612956610bfb602061324d948160405193828580945193849201612e88565b60405162461bcd60e51b815260206004820152601460248201527310985d1d1b1948191bd95cdb89dd08195e1a5cdd60621b6044820152606490fd5b61424c6138f7565b50815160038110156119bc5760021461436b576002825260018060a01b038091168060a08401527fae6e5eafb6cd1cb4b139e7a0b9140aa182ee7d50e99f50d660156f79212acbc060408401926142a48585516141da565b806060860181815151166000526007602052600a600261432a604060002054856020865101511660005260406000205490848461430760046142e5856132d4565b50019360ff1994858154169055601960036142ff836132d4565b5001556132d4565b5001556004614315836132d4565b5001908154169055601960036142ff836132d4565b500155518051821685810361436257506020015116935b519361435c6040519283926020845216956020830190612eab565b0390a390565b91505093614341565b60405162461bcd60e51b815260206004820152601460248201527310985d1d1b1948185b1c9958591e48195b99195960621b6044820152606490fd5b8015614470579060009082805b61445657506143c282612f91565b916143d06040519384612f70565b808352601f196143df82612f91565b01366020850137925b83811561444f57600019918286019586116133df5785600a8083048095048111851515166133df5761442060ff938492870290613fb1565b166030019182116133df57855111156131bf5760f81b6001600160f81b03191660001a908401601f01536143e8565b5050915090565b91614465600a919492946133d0565b9204809391936143b4565b5060405161447d81612f04565b60018152600360fc1b60208201529056fea26469706673582212208d511bbcc02829c311c23d256e3d9ad233b9bc8f513db58511e0edc4b29e3b4364736f6c63430008100033405787fa12a823e0f2b7631cc41b3ba8828b3321ca811111fa75cd3aa3bb5ace",
  "linkReferences": {},
  "deployedLinkReferences": {}
}